{
  "_format": "hh-sol-artifact-1",
  "contractName": "Guess",
  "sourceName": "contracts/Guess.sol",
  "abi": [
    {
      "inputs": [],
      "stateMutability": "nonpayable",
      "type": "constructor"
    },
    {
      "anonymous": false,
      "inputs": [
        {
          "indexed": true,
          "internalType": "uint256",
          "name": "itemId",
          "type": "uint256"
        },
        {
          "indexed": true,
          "internalType": "bool",
          "name": "hasAward",
          "type": "bool"
        }
      ],
      "name": "GuessToMinted",
      "type": "event"
    },
    {
      "anonymous": false,
      "inputs": [
        {
          "indexed": true,
          "internalType": "address",
          "name": "previousOwner",
          "type": "address"
        },
        {
          "indexed": true,
          "internalType": "address",
          "name": "newOwner",
          "type": "address"
        }
      ],
      "name": "OwnershipTransferred",
      "type": "event"
    },
    {
      "inputs": [],
      "name": "getAllGuess",
      "outputs": [
        {
          "components": [
            {
              "internalType": "uint256",
              "name": "itemId",
              "type": "uint256"
            },
            {
              "internalType": "bool",
              "name": "hasAward",
              "type": "bool"
            },
            {
              "internalType": "address payable",
              "name": "buyer",
              "type": "address"
            }
          ],
          "internalType": "struct Guess.GuessItem[]",
          "name": "",
          "type": "tuple[]"
        }
      ],
      "stateMutability": "view",
      "type": "function"
    },
    {
      "inputs": [],
      "name": "getMiniPrice",
      "outputs": [
        {
          "internalType": "uint256",
          "name": "",
          "type": "uint256"
        }
      ],
      "stateMutability": "view",
      "type": "function"
    },
    {
      "inputs": [],
      "name": "getMyGuess",
      "outputs": [
        {
          "components": [
            {
              "internalType": "uint256",
              "name": "itemId",
              "type": "uint256"
            },
            {
              "internalType": "bool",
              "name": "hasAward",
              "type": "bool"
            },
            {
              "internalType": "address payable",
              "name": "buyer",
              "type": "address"
            }
          ],
          "internalType": "struct Guess.GuessItem[]",
          "name": "",
          "type": "tuple[]"
        }
      ],
      "stateMutability": "view",
      "type": "function"
    },
    {
      "inputs": [
        {
          "internalType": "uint256",
          "name": "itemId",
          "type": "uint256"
        }
      ],
      "name": "guessToWin",
      "outputs": [
        {
          "internalType": "bool",
          "name": "",
          "type": "bool"
        }
      ],
      "stateMutability": "payable",
      "type": "function"
    },
    {
      "inputs": [],
      "name": "owner",
      "outputs": [
        {
          "internalType": "address",
          "name": "",
          "type": "address"
        }
      ],
      "stateMutability": "view",
      "type": "function"
    },
    {
      "inputs": [],
      "name": "renounceOwnership",
      "outputs": [],
      "stateMutability": "nonpayable",
      "type": "function"
    },
    {
      "inputs": [
        {
          "internalType": "address",
          "name": "newOwner",
          "type": "address"
        }
      ],
      "name": "transferOwnership",
      "outputs": [],
      "stateMutability": "nonpayable",
      "type": "function"
    }
  ],
  "bytecode": "0x67011c37937e0800006003908155603260058190556101c06040526001608090815260a092909252601160c052601960e052601d61010052602361012052602f61014052602461016052600d610180526101a05261006190600690600a6100e6565b5034801561006e57600080fd5b50600160005561007d33610094565b600480546001600160a01b0319163317905561014b565b600180546001600160a01b038381166001600160a01b0319831681179093556040519116919082907f8be0079c531659141344cd1fd0a4f28419497f9722a3daafe3b4186f6b6457e090600090a35050565b828054828255906000526020600020908101928215610126579160200282015b82811115610126578251829060ff16905591602001919060010190610106565b50610132929150610136565b5090565b5b808211156101325760008155600101610137565b610b318061015a6000396000f3fe6080604052600436106100705760003560e01c80638da5cb5b1161004e5780638da5cb5b146100da5780639185973414610102578063e43e747614610120578063f2fde38b1461013557600080fd5b8063063a20b71461007557806326060229146100a0578063715018a6146100c3575b600080fd5b34801561008157600080fd5b5061008a610155565b60405161009791906109ec565b60405180910390f35b6100b36100ae3660046109d4565b610287565b6040519015158152602001610097565b3480156100cf57600080fd5b506100d861049d565b005b3480156100e657600080fd5b506001546040516001600160a01b039091168152602001610097565b34801561010e57600080fd5b50600354604051908152602001610097565b34801561012c57600080fd5b5061008a610503565b34801561014157600080fd5b506100d86101503660046109a6565b6106c1565b6060600061016260025490565b905060008167ffffffffffffffff81111561018d57634e487b7160e01b600052604160045260246000fd5b6040519080825280602002602001820160405280156101d857816020015b60408051606081018252600080825260208083018290529282015282526000199092019101816101ab5790505b50905060005b828110156102805760006101f3826001610ab2565b600081815260076020908152604091829020825160608101845281548152600182015460ff81161515938201939093526101009092046001600160a01b0316928201929092528551929350909185908590811061026057634e487b7160e01b600052603260045260246000fd5b60200260200101819052505050808061027890610aca565b9150506101de565b5092915050565b600060035434146102df5760405162461bcd60e51b815260206004820181905260248201527f5072696365206d75737420746f20657175616c20746f206d696e74507269636560448201526064015b60405180910390fd5b8160001080156102ef5750603282105b6103315760405162461bcd60e51b81526020600482015260136024820152721a5d195b5259081a5cc81b9bdd081d985b1a59606a1b60448201526064016102d6565b600061033c8361078c565b905080156103845760405162461bcd60e51b81526020600482015260156024820152746974656d4964207761732062652063686f6f73652160581b60448201526064016102d6565b610392600280546001019055565b600061039d60025490565b905060328111156103e65760405162461bcd60e51b81526020600482015260136024820152726f6e6c792035302067756573732074696d657360681b60448201526064016102d6565b6103ef84610836565b60006103fa8561087b565b60408051606081018252878152821515602080830182815233848601908152600089815260079093528583209451855590516001909401805491516001600160a81b0319909216941515610100600160a81b031916949094176101006001600160a01b0390921691909102179092559151929350909187917f2e74eeb6867c5eda2fff0fb08f1d9d5b02c514bd5cba9b91a389b7faa250f8a291a3949350505050565b6001546001600160a01b031633146104f75760405162461bcd60e51b815260206004820181905260248201527f4f776e61626c653a2063616c6c6572206973206e6f7420746865206f776e657260448201526064016102d6565b61050160006108e7565b565b6060600061051060025490565b90506000805b8281101561057657600061052b826001610ab2565b60008181526007602052604090206001015490915061010090046001600160a01b0316331415610563578261055f81610aca565b9350505b508061056e81610aca565b915050610516565b5060008167ffffffffffffffff8111156105a057634e487b7160e01b600052604160045260246000fd5b6040519080825280602002602001820160405280156105eb57816020015b60408051606081018252600080825260208083018290529282015282526000199092019101816105be5790505b5090506000805b848110156106b7576000610607826001610ab2565b600081815260076020526040902060018101549192509061010090046001600160a01b03163314156106a2576040805160608101825282548152600183015460ff81161515602083015261010090046001600160a01b031691810191909152855186908690811061068857634e487b7160e01b600052603260045260246000fd5b6020026020010181905250838061069e90610aca565b9450505b505080806106af90610aca565b9150506105f2565b5090949350505050565b6001546001600160a01b0316331461071b5760405162461bcd60e51b815260206004820181905260248201527f4f776e61626c653a2063616c6c6572206973206e6f7420746865206f776e657260448201526064016102d6565b6001600160a01b0381166107805760405162461bcd60e51b815260206004820152602660248201527f4f776e61626c653a206e6577206f776e657220697320746865207a65726f206160448201526564647265737360d01b60648201526084016102d6565b610789816108e7565b50565b600080610797610155565b905060005b815181101561082c5760008282815181106107c757634e487b7160e01b600052603260045260246000fd5b60200260200101516000015190506108066040518060400160405280600e81526020016d3430b9a132b2b726b4b73a32b21d60911b8152508287610939565b8481141561081957506001949350505050565b508061082481610aca565b91505061079c565b5060009392505050565b6107898160405160240161084c91815260200190565b60408051601f198184030181529190526020810180516001600160e01b031663f5b1bba960e01b179052610985565b6000805b6006548110156108de576000600682815481106108ac57634e487b7160e01b600052603260045260246000fd5b90600052602060002001549050838114156108cb575060019392505050565b50806108d681610aca565b91505061087f565b50600092915050565b600180546001600160a01b038381166001600160a01b0319831681179093556040519116919082907f8be0079c531659141344cd1fd0a4f28419497f9722a3daafe3b4186f6b6457e090600090a35050565b61098083838360405160240161095193929190610a50565b60408051601f198184030181529190526020810180516001600160e01b031663969cdd0360e01b179052610985565b505050565b80516a636f6e736f6c652e6c6f67602083016000808483855afa5050505050565b6000602082840312156109b7578081fd5b81356001600160a01b03811681146109cd578182fd5b9392505050565b6000602082840312156109e5578081fd5b5035919050565b602080825282518282018190526000919060409081850190868401855b82811015610a4357815180518552868101511515878601528501516001600160a01b03168585015260609093019290850190600101610a09565b5091979650505050505050565b6060815260008451806060840152815b81811015610a7d5760208188018101516080868401015201610a60565b81811115610a8e5782608083860101525b5060208301949094525060408101919091526080601f909201601f19160101919050565b60008219821115610ac557610ac5610ae5565b500190565b6000600019821415610ade57610ade610ae5565b5060010190565b634e487b7160e01b600052601160045260246000fdfea2646970667358221220e257564174b343146b3964d2b302147c30141476cd534b8465267061365645fb64736f6c63430008040033",
  "linkReferences": {},
  "deployedLinkReferences": {}
}