{
  "_format": "hh-sol-artifact-1",
  "contractName": "NFT",
  "sourceName": "contracts/NFT.sol",
  "abi": [
    {
      "inputs": [
        {
          "internalType": "string",
          "name": "initBaseURI",
          "type": "string"
        }
      ],
      "stateMutability": "nonpayable",
      "type": "constructor"
    },
    {
      "anonymous": false,
      "inputs": [
        {
          "indexed": true,
          "internalType": "address",
          "name": "owner",
          "type": "address"
        },
        {
          "indexed": true,
          "internalType": "address",
          "name": "approved",
          "type": "address"
        },
        {
          "indexed": true,
          "internalType": "uint256",
          "name": "tokenId",
          "type": "uint256"
        }
      ],
      "name": "Approval",
      "type": "event"
    },
    {
      "anonymous": false,
      "inputs": [
        {
          "indexed": true,
          "internalType": "address",
          "name": "owner",
          "type": "address"
        },
        {
          "indexed": true,
          "internalType": "address",
          "name": "operator",
          "type": "address"
        },
        {
          "indexed": false,
          "internalType": "bool",
          "name": "approved",
          "type": "bool"
        }
      ],
      "name": "ApprovalForAll",
      "type": "event"
    },
    {
      "anonymous": false,
      "inputs": [
        {
          "indexed": true,
          "internalType": "address",
          "name": "previousOwner",
          "type": "address"
        },
        {
          "indexed": true,
          "internalType": "address",
          "name": "newOwner",
          "type": "address"
        }
      ],
      "name": "OwnershipTransferred",
      "type": "event"
    },
    {
      "anonymous": false,
      "inputs": [
        {
          "indexed": true,
          "internalType": "address",
          "name": "from",
          "type": "address"
        },
        {
          "indexed": true,
          "internalType": "address",
          "name": "to",
          "type": "address"
        },
        {
          "indexed": true,
          "internalType": "uint256",
          "name": "tokenId",
          "type": "uint256"
        }
      ],
      "name": "Transfer",
      "type": "event"
    },
    {
      "inputs": [],
      "name": "MAX_SUPPLY",
      "outputs": [
        {
          "internalType": "uint256",
          "name": "",
          "type": "uint256"
        }
      ],
      "stateMutability": "view",
      "type": "function"
    },
    {
      "inputs": [
        {
          "internalType": "address",
          "name": "to",
          "type": "address"
        },
        {
          "internalType": "uint256",
          "name": "tokenId",
          "type": "uint256"
        }
      ],
      "name": "approve",
      "outputs": [],
      "stateMutability": "nonpayable",
      "type": "function"
    },
    {
      "inputs": [
        {
          "internalType": "address",
          "name": "owner",
          "type": "address"
        }
      ],
      "name": "balanceOf",
      "outputs": [
        {
          "internalType": "uint256",
          "name": "",
          "type": "uint256"
        }
      ],
      "stateMutability": "view",
      "type": "function"
    },
    {
      "inputs": [],
      "name": "baseExtension",
      "outputs": [
        {
          "internalType": "string",
          "name": "",
          "type": "string"
        }
      ],
      "stateMutability": "view",
      "type": "function"
    },
    {
      "inputs": [],
      "name": "getAllSoldAwardNFT",
      "outputs": [
        {
          "components": [
            {
              "internalType": "uint256",
              "name": "itemId",
              "type": "uint256"
            },
            {
              "internalType": "address payable",
              "name": "ownerAddress",
              "type": "address"
            },
            {
              "internalType": "bool",
              "name": "sold",
              "type": "bool"
            }
          ],
          "internalType": "struct NFT.AwardItem[]",
          "name": "",
          "type": "tuple[]"
        }
      ],
      "stateMutability": "view",
      "type": "function"
    },
    {
      "inputs": [],
      "name": "getAllSoldNFT",
      "outputs": [
        {
          "components": [
            {
              "internalType": "uint256",
              "name": "itemId",
              "type": "uint256"
            },
            {
              "internalType": "address payable",
              "name": "ownerAddress",
              "type": "address"
            },
            {
              "internalType": "bool",
              "name": "sold",
              "type": "bool"
            }
          ],
          "internalType": "struct NFT.AwardItem[]",
          "name": "",
          "type": "tuple[]"
        }
      ],
      "stateMutability": "view",
      "type": "function"
    },
    {
      "inputs": [
        {
          "internalType": "uint256",
          "name": "tokenId",
          "type": "uint256"
        }
      ],
      "name": "getApproved",
      "outputs": [
        {
          "internalType": "address",
          "name": "",
          "type": "address"
        }
      ],
      "stateMutability": "view",
      "type": "function"
    },
    {
      "inputs": [],
      "name": "getMyNFT",
      "outputs": [
        {
          "components": [
            {
              "internalType": "uint256",
              "name": "itemId",
              "type": "uint256"
            },
            {
              "internalType": "address payable",
              "name": "ownerAddress",
              "type": "address"
            },
            {
              "internalType": "bool",
              "name": "sold",
              "type": "bool"
            }
          ],
          "internalType": "struct NFT.AwardItem[]",
          "name": "",
          "type": "tuple[]"
        }
      ],
      "stateMutability": "view",
      "type": "function"
    },
    {
      "inputs": [
        {
          "internalType": "address",
          "name": "owner",
          "type": "address"
        },
        {
          "internalType": "address",
          "name": "operator",
          "type": "address"
        }
      ],
      "name": "isApprovedForAll",
      "outputs": [
        {
          "internalType": "bool",
          "name": "",
          "type": "bool"
        }
      ],
      "stateMutability": "view",
      "type": "function"
    },
    {
      "inputs": [],
      "name": "maxMint",
      "outputs": [
        {
          "internalType": "uint256",
          "name": "",
          "type": "uint256"
        }
      ],
      "stateMutability": "view",
      "type": "function"
    },
    {
      "inputs": [
        {
          "internalType": "uint256",
          "name": "tokenQuantity",
          "type": "uint256"
        }
      ],
      "name": "mint",
      "outputs": [],
      "stateMutability": "payable",
      "type": "function"
    },
    {
      "inputs": [],
      "name": "name",
      "outputs": [
        {
          "internalType": "string",
          "name": "",
          "type": "string"
        }
      ],
      "stateMutability": "view",
      "type": "function"
    },
    {
      "inputs": [],
      "name": "owner",
      "outputs": [
        {
          "internalType": "address",
          "name": "",
          "type": "address"
        }
      ],
      "stateMutability": "view",
      "type": "function"
    },
    {
      "inputs": [
        {
          "internalType": "uint256",
          "name": "tokenId",
          "type": "uint256"
        }
      ],
      "name": "ownerOf",
      "outputs": [
        {
          "internalType": "address",
          "name": "",
          "type": "address"
        }
      ],
      "stateMutability": "view",
      "type": "function"
    },
    {
      "inputs": [],
      "name": "renounceOwnership",
      "outputs": [],
      "stateMutability": "nonpayable",
      "type": "function"
    },
    {
      "inputs": [
        {
          "internalType": "address",
          "name": "from",
          "type": "address"
        },
        {
          "internalType": "address",
          "name": "to",
          "type": "address"
        },
        {
          "internalType": "uint256",
          "name": "tokenId",
          "type": "uint256"
        }
      ],
      "name": "safeTransferFrom",
      "outputs": [],
      "stateMutability": "nonpayable",
      "type": "function"
    },
    {
      "inputs": [
        {
          "internalType": "address",
          "name": "from",
          "type": "address"
        },
        {
          "internalType": "address",
          "name": "to",
          "type": "address"
        },
        {
          "internalType": "uint256",
          "name": "tokenId",
          "type": "uint256"
        },
        {
          "internalType": "bytes",
          "name": "_data",
          "type": "bytes"
        }
      ],
      "name": "safeTransferFrom",
      "outputs": [],
      "stateMutability": "nonpayable",
      "type": "function"
    },
    {
      "inputs": [
        {
          "internalType": "address",
          "name": "operator",
          "type": "address"
        },
        {
          "internalType": "bool",
          "name": "approved",
          "type": "bool"
        }
      ],
      "name": "setApprovalForAll",
      "outputs": [],
      "stateMutability": "nonpayable",
      "type": "function"
    },
    {
      "inputs": [
        {
          "internalType": "string",
          "name": "_newBaseExtension",
          "type": "string"
        }
      ],
      "name": "setBaseExtension",
      "outputs": [],
      "stateMutability": "nonpayable",
      "type": "function"
    },
    {
      "inputs": [
        {
          "internalType": "string",
          "name": "_newBaseURI",
          "type": "string"
        }
      ],
      "name": "setBaseURI",
      "outputs": [],
      "stateMutability": "nonpayable",
      "type": "function"
    },
    {
      "inputs": [
        {
          "internalType": "bytes4",
          "name": "interfaceId",
          "type": "bytes4"
        }
      ],
      "name": "supportsInterface",
      "outputs": [
        {
          "internalType": "bool",
          "name": "",
          "type": "bool"
        }
      ],
      "stateMutability": "view",
      "type": "function"
    },
    {
      "inputs": [],
      "name": "symbol",
      "outputs": [
        {
          "internalType": "string",
          "name": "",
          "type": "string"
        }
      ],
      "stateMutability": "view",
      "type": "function"
    },
    {
      "inputs": [
        {
          "internalType": "uint256",
          "name": "index",
          "type": "uint256"
        }
      ],
      "name": "tokenByIndex",
      "outputs": [
        {
          "internalType": "uint256",
          "name": "",
          "type": "uint256"
        }
      ],
      "stateMutability": "view",
      "type": "function"
    },
    {
      "inputs": [
        {
          "internalType": "address",
          "name": "owner",
          "type": "address"
        },
        {
          "internalType": "uint256",
          "name": "index",
          "type": "uint256"
        }
      ],
      "name": "tokenOfOwnerByIndex",
      "outputs": [
        {
          "internalType": "uint256",
          "name": "",
          "type": "uint256"
        }
      ],
      "stateMutability": "view",
      "type": "function"
    },
    {
      "inputs": [
        {
          "internalType": "uint256",
          "name": "tokenId",
          "type": "uint256"
        }
      ],
      "name": "tokenURI",
      "outputs": [
        {
          "internalType": "string",
          "name": "",
          "type": "string"
        }
      ],
      "stateMutability": "view",
      "type": "function"
    },
    {
      "inputs": [],
      "name": "totalSupply",
      "outputs": [
        {
          "internalType": "uint256",
          "name": "",
          "type": "uint256"
        }
      ],
      "stateMutability": "view",
      "type": "function"
    },
    {
      "inputs": [
        {
          "internalType": "address",
          "name": "from",
          "type": "address"
        },
        {
          "internalType": "address",
          "name": "to",
          "type": "address"
        },
        {
          "internalType": "uint256",
          "name": "tokenId",
          "type": "uint256"
        }
      ],
      "name": "transferFrom",
      "outputs": [],
      "stateMutability": "nonpayable",
      "type": "function"
    },
    {
      "inputs": [
        {
          "internalType": "address",
          "name": "newOwner",
          "type": "address"
        }
      ],
      "name": "transferOwnership",
      "outputs": [],
      "stateMutability": "nonpayable",
      "type": "function"
    },
    {
      "inputs": [
        {
          "internalType": "address",
          "name": "to",
          "type": "address"
        }
      ],
      "name": "withdraw",
      "outputs": [],
      "stateMutability": "nonpayable",
      "type": "function"
    }
  ],
  "bytecode": "0x6001600c5560c06040526005608081905264173539b7b760d91b60a09081526200002d91600e9190620001bc565b503480156200003b57600080fd5b5060405162002b2738038062002b278339810160408190526200005e9162000262565b60408051808201825260088152674c656f204d65746160c01b6020808301918252835180850190945260038452624c656f60e81b908401528151919291620000a991600091620001bc565b508051620000bf906001906020840190620001bc565b505050620000dc620000d6620000ee60201b60201c565b620000f2565b620000e78162000144565b506200038b565b3390565b600a80546001600160a01b038381166001600160a01b0319831681179093556040519116919082907f8be0079c531659141344cd1fd0a4f28419497f9722a3daafe3b4186f6b6457e090600090a35050565b600a546001600160a01b03163314620001a35760405162461bcd60e51b815260206004820181905260248201527f4f776e61626c653a2063616c6c6572206973206e6f7420746865206f776e6572604482015260640160405180910390fd5b8051620001b890600d906020840190620001bc565b5050565b828054620001ca9062000338565b90600052602060002090601f016020900481019282620001ee576000855562000239565b82601f106200020957805160ff191683800117855562000239565b8280016001018555821562000239579182015b82811115620002395782518255916020019190600101906200021c565b50620002479291506200024b565b5090565b5b808211156200024757600081556001016200024c565b6000602080838503121562000275578182fd5b82516001600160401b03808211156200028c578384fd5b818501915085601f830112620002a0578384fd5b815181811115620002b557620002b562000375565b604051601f8201601f19908116603f01168101908382118183101715620002e057620002e062000375565b816040528281528886848701011115620002f8578687fd5b8693505b828410156200031b5784840186015181850187015292850192620002fc565b828411156200032c57868684830101525b98975050505050505050565b600181811c908216806200034d57607f821691505b602082108114156200036f57634e487b7160e01b600052602260045260246000fd5b50919050565b634e487b7160e01b600052604160045260246000fd5b61278c806200039b6000396000f3fe6080604052600436106101c25760003560e01c80636352211e116100f7578063a22cb46511610095578063cad7d03311610064578063cad7d033146104c9578063da3ef23f146104de578063e985e9c5146104fe578063f2fde38b1461054757600080fd5b8063a22cb46514610454578063b88d4fde14610474578063c668286214610494578063c87b56dd146104a957600080fd5b80637501f741116100d15780637501f741146103f85780638da5cb5b1461040e57806395d89b411461042c578063a0712d681461044157600080fd5b80636352211e146103a357806370a08231146103c3578063715018a6146103e357600080fd5b80632f745c59116101645780634f6ccce71161013e5780634f6ccce71461032e57806351cff8d91461034e57806355d080dd1461036e57806355f804b31461038357600080fd5b80632f745c59146102d957806332cb6b0c146102f957806342842e0e1461030e57600080fd5b8063095ea7b3116101a0578063095ea7b31461025657806318160ddd1461027857806321b370971461029757806323b872dd146102b957600080fd5b806301ffc9a7146101c757806306fdde03146101fc578063081812fc1461021e575b600080fd5b3480156101d357600080fd5b506101e76101e23660046122c4565b610567565b60405190151581526020015b60405180910390f35b34801561020857600080fd5b50610211610592565b6040516101f39190612518565b34801561022a57600080fd5b5061023e610239366004612342565b610624565b6040516001600160a01b0390911681526020016101f3565b34801561026257600080fd5b5061027661027136600461229b565b6106be565b005b34801561028457600080fd5b506008545b6040519081526020016101f3565b3480156102a357600080fd5b506102ac6107d4565b6040516101f391906124b4565b3480156102c557600080fd5b506102766102d43660046121ad565b610909565b3480156102e557600080fd5b506102896102f436600461229b565b61093a565b34801561030557600080fd5b50610289600a81565b34801561031a57600080fd5b506102766103293660046121ad565b6109d0565b34801561033a57600080fd5b50610289610349366004612342565b6109eb565b34801561035a57600080fd5b5061027661036936600461215a565b610a8c565b34801561037a57600080fd5b506102ac610aee565b34801561038f57600080fd5b5061027661039e3660046122fc565b610c08565b3480156103af57600080fd5b5061023e6103be366004612342565b610c49565b3480156103cf57600080fd5b506102896103de36600461215a565b610cc0565b3480156103ef57600080fd5b50610276610d47565b34801561040457600080fd5b50610289600c5481565b34801561041a57600080fd5b50600a546001600160a01b031661023e565b34801561043857600080fd5b50610211610d7d565b61027661044f366004612342565b610d8c565b34801561046057600080fd5b5061027661046f366004612261565b610e4e565b34801561048057600080fd5b5061027661048f3660046121e8565b610e59565b3480156104a057600080fd5b50610211610e91565b3480156104b557600080fd5b506102116104c4366004612342565b610f1f565b3480156104d557600080fd5b506102ac6110a4565b3480156104ea57600080fd5b506102766104f93660046122fc565b6112a2565b34801561050a57600080fd5b506101e761051936600461217b565b6001600160a01b03918216600090815260056020908152604080832093909416825291909152205460ff1690565b34801561055357600080fd5b5061027661056236600461215a565b6112df565b60006001600160e01b0319821663780e9d6360e01b148061058c575061058c82611377565b92915050565b6060600080546105a190612694565b80601f01602080910402602001604051908101604052809291908181526020018280546105cd90612694565b801561061a5780601f106105ef5761010080835404028352916020019161061a565b820191906000526020600020905b8154815290600101906020018083116105fd57829003601f168201915b5050505050905090565b6000818152600260205260408120546001600160a01b03166106a25760405162461bcd60e51b815260206004820152602c60248201527f4552433732313a20617070726f76656420717565727920666f72206e6f6e657860448201526b34b9ba32b73a103a37b5b2b760a11b60648201526084015b60405180910390fd5b506000908152600460205260409020546001600160a01b031690565b60006106c982610c49565b9050806001600160a01b0316836001600160a01b031614156107375760405162461bcd60e51b815260206004820152602160248201527f4552433732313a20617070726f76616c20746f2063757272656e74206f776e656044820152603960f91b6064820152608401610699565b336001600160a01b038216148061075357506107538133610519565b6107c55760405162461bcd60e51b815260206004820152603860248201527f4552433732313a20617070726f76652063616c6c6572206973206e6f74206f7760448201527f6e6572206e6f7220617070726f76656420666f7220616c6c00000000000000006064820152608401610699565b6107cf83836113c7565b505050565b606060006107e1600b5490565b905060008167ffffffffffffffff81111561080c57634e487b7160e01b600052604160045260246000fd5b60405190808252806020026020018201604052801561085757816020015b604080516060810182526000808252602080830182905292820152825260001990920191018161082a5790505b50905060005b82811015610902576000601081610875846001612625565b8152602080820192909252604090810160002081516060810183528154815260018201546001600160a01b03811694820194909452600160a01b90930460ff1615159183019190915284519092508490849081106108e357634e487b7160e01b600052603260045260246000fd5b60200260200101819052505080806108fa906126cf565b91505061085d565b5092915050565b6109133382611435565b61092f5760405162461bcd60e51b8152600401610699906125d4565b6107cf83838361152c565b600061094583610cc0565b82106109a75760405162461bcd60e51b815260206004820152602b60248201527f455243373231456e756d657261626c653a206f776e657220696e646578206f7560448201526a74206f6620626f756e647360a81b6064820152608401610699565b506001600160a01b03919091166000908152600660209081526040808320938352929052205490565b6107cf83838360405180602001604052806000815250610e59565b60006109f660085490565b8210610a595760405162461bcd60e51b815260206004820152602c60248201527f455243373231456e756d657261626c653a20676c6f62616c20696e646578206f60448201526b7574206f6620626f756e647360a01b6064820152608401610699565b60088281548110610a7a57634e487b7160e01b600052603260045260246000fd5b90600052602060002001549050919050565b600a546001600160a01b03163314610ab65760405162461bcd60e51b81526004016106999061259f565b60405147906001600160a01b0383169082156108fc029083906000818181858888f193505050501580156107cf573d6000803e3d6000fd5b60606000610afb600b5490565b905060008167ffffffffffffffff811115610b2657634e487b7160e01b600052604160045260246000fd5b604051908082528060200260200182016040528015610b7157816020015b6040805160608101825260008082526020808301829052928201528252600019909201910181610b445790505b50905060005b828110156109025760008181526010602090815260409182902082516060810184528154815260018201546001600160a01b03811693820193909352600160a01b90920460ff161515928201929092528351849084908110610be957634e487b7160e01b600052603260045260246000fd5b6020026020010181905250508080610c00906126cf565b915050610b77565b600a546001600160a01b03163314610c325760405162461bcd60e51b81526004016106999061259f565b8051610c4590600d90602084019061202f565b5050565b6000818152600260205260408120546001600160a01b03168061058c5760405162461bcd60e51b815260206004820152602960248201527f4552433732313a206f776e657220717565727920666f72206e6f6e657869737460448201526832b73a103a37b5b2b760b91b6064820152608401610699565b60006001600160a01b038216610d2b5760405162461bcd60e51b815260206004820152602a60248201527f4552433732313a2062616c616e636520717565727920666f7220746865207a65604482015269726f206164647265737360b01b6064820152608401610699565b506001600160a01b031660009081526003602052604090205490565b600a546001600160a01b03163314610d715760405162461bcd60e51b81526004016106999061259f565b610d7b60006116d7565b565b6060600180546105a190612694565b600a81610d9860085490565b610da29190612625565b1115610df05760405162461bcd60e51b815260206004820152601c60248201527f53616c6520776f756c6420657863656564206d617820737570706c79000000006044820152606401610699565b600c54811115610e425760405162461bcd60e51b815260206004820181905260248201527f43616e206f6e6c79206d696e74203120746f6b656e7320617420612074696d656044820152606401610699565b610e4b81611729565b50565b610c45338383611834565b610e633383611435565b610e7f5760405162461bcd60e51b8152600401610699906125d4565b610e8b84848484611903565b50505050565b600e8054610e9e90612694565b80601f0160208091040260200160405190810160405280929190818152602001828054610eca90612694565b8015610f175780601f10610eec57610100808354040283529160200191610f17565b820191906000526020600020905b815481529060010190602001808311610efa57829003601f168201915b505050505081565b6000818152600260205260409020546060906001600160a01b0316610f9e5760405162461bcd60e51b815260206004820152602f60248201527f4552433732314d657461646174613a2055524920717565727920666f72206e6f60448201526e3732bc34b9ba32b73a103a37b5b2b760891b6064820152608401610699565b6000828152600f602052604081208054610fb790612694565b80601f0160208091040260200160405190810160405280929190818152602001828054610fe390612694565b80156110305780601f1061100557610100808354040283529160200191611030565b820191906000526020600020905b81548152906001019060200180831161101357829003601f168201915b505050505090506000611041611936565b9050805160001415611054575092915050565b81511561108657808260405160200161106e929190612386565b60405160208183030381529060405292505050919050565b8061109085611945565b600e60405160200161106e939291906123b5565b606060006110b1600b5490565b90506000805b8281101561111257601060006110ce836001612625565b81526020810191909152604001600020600101546001600160a01b031633141561110057816110fc816126cf565b9250505b8061110a816126cf565b9150506110b7565b5060008167ffffffffffffffff81111561113c57634e487b7160e01b600052604160045260246000fd5b60405190808252806020026020018201604052801561118757816020015b604080516060810182526000808252602080830182905292820152825260001990920191018161115a5790505b50905060005b8381101561129a576111ca33601060006111a8856001612625565b81526020810191909152604001600020600101546001600160a01b0316611a5f565b601060006111d9836001612625565b81526020810191909152604001600020600101546001600160a01b031633141561128857600060108161120d846001612625565b8152602080820192909252604090810160002081516060810183528154815260018201546001600160a01b03811694820194909452600160a01b90930460ff16151591830191909152845190925084908490811061127b57634e487b7160e01b600052603260045260246000fd5b6020026020010181905250505b80611292816126cf565b91505061118d565b509392505050565b600a546001600160a01b031633146112cc5760405162461bcd60e51b81526004016106999061259f565b8051610c4590600e90602084019061202f565b600a546001600160a01b031633146113095760405162461bcd60e51b81526004016106999061259f565b6001600160a01b03811661136e5760405162461bcd60e51b815260206004820152602660248201527f4f776e61626c653a206e6577206f776e657220697320746865207a65726f206160448201526564647265737360d01b6064820152608401610699565b610e4b816116d7565b60006001600160e01b031982166380ac58cd60e01b14806113a857506001600160e01b03198216635b5e139f60e01b145b8061058c57506301ffc9a760e01b6001600160e01b031983161461058c565b600081815260046020526040902080546001600160a01b0319166001600160a01b03841690811790915581906113fc82610c49565b6001600160a01b03167f8c5be1e5ebec7d5bd14f71427d1e84f3dd0314c0f7b2291e5b200ac8c7c3b92560405160405180910390a45050565b6000818152600260205260408120546001600160a01b03166114ae5760405162461bcd60e51b815260206004820152602c60248201527f4552433732313a206f70657261746f7220717565727920666f72206e6f6e657860448201526b34b9ba32b73a103a37b5b2b760a11b6064820152608401610699565b60006114b983610c49565b9050806001600160a01b0316846001600160a01b031614806114f45750836001600160a01b03166114e984610624565b6001600160a01b0316145b8061152457506001600160a01b0380821660009081526005602090815260408083209388168352929052205460ff165b949350505050565b826001600160a01b031661153f82610c49565b6001600160a01b0316146115a75760405162461bcd60e51b815260206004820152602960248201527f4552433732313a207472616e73666572206f6620746f6b656e2074686174206960448201526839903737ba1037bbb760b91b6064820152608401610699565b6001600160a01b0382166116095760405162461bcd60e51b8152602060048201526024808201527f4552433732313a207472616e7366657220746f20746865207a65726f206164646044820152637265737360e01b6064820152608401610699565b611614838383611aaf565b61161f6000826113c7565b6001600160a01b0383166000908152600360205260408120805460019290611648908490612651565b90915550506001600160a01b0382166000908152600360205260408120805460019290611676908490612625565b909155505060008181526002602052604080822080546001600160a01b0319166001600160a01b0386811691821790925591518493918716917fddf252ad1be2c89b69c2b068fc378daa952ba7f163c4a11628f55a4df523b3ef91a4505050565b600a80546001600160a01b038381166001600160a01b0319831681179093556040519116919082907f8be0079c531659141344cd1fd0a4f28419497f9722a3daafe3b4186f6b6457e090600090a35050565b60005b81811015610c4557600061173f60085490565b9050600a61174c60085490565b10156118215761175c3382611b67565b6000611767600b5490565b9050611794604051806040016040528060098152602001683732bba7232a24b21d60b91b81525082611b81565b604080516060810182528281523360208201526001918101829052906010906000906117c1908590612625565b8152602080820192909252604090810160002083518155918301516001909201805493909101511515600160a01b026001600160a81b03199093166001600160a01b039092169190911791909117905561181f600b80546001019055565b505b508061182c816126cf565b91505061172c565b816001600160a01b0316836001600160a01b031614156118965760405162461bcd60e51b815260206004820152601960248201527f4552433732313a20617070726f766520746f2063616c6c6572000000000000006044820152606401610699565b6001600160a01b03838116600081815260056020908152604080832094871680845294825291829020805460ff191686151590811790915591519182527f17307eab39ab6107e8899845ad3d59bd9653f200f220920489ca2b5937696c31910160405180910390a3505050565b61190e84848461152c565b61191a84848484611bc6565b610e8b5760405162461bcd60e51b81526004016106999061254d565b6060600d80546105a190612694565b6060816119695750506040805180820190915260018152600360fc1b602082015290565b8160005b8115611993578061197d816126cf565b915061198c9050600a8361263d565b915061196d565b60008167ffffffffffffffff8111156119bc57634e487b7160e01b600052604160045260246000fd5b6040519080825280601f01601f1916602001820160405280156119e6576020820181803683370190505b5090505b8415611524576119fb600183612651565b9150611a08600a866126ea565b611a13906030612625565b60f81b818381518110611a3657634e487b7160e01b600052603260045260246000fd5b60200101906001600160f81b031916908160001a905350611a58600a8661263d565b94506119ea565b6040516001600160a01b03808416602483015282166044820152610c459060640160408051601f198184030181529190526020810180516001600160e01b0316636d786a5560e11b179052611cd3565b6001600160a01b038316611b0a57611b0581600880546000838152600960205260408120829055600182018355919091527ff3f7a9fe364faab93b216da50a3214154f22a0a2b415b23a84c8169e8b636ee30155565b611b2d565b816001600160a01b0316836001600160a01b031614611b2d57611b2d8382611cf4565b6001600160a01b038216611b44576107cf81611d91565b826001600160a01b0316826001600160a01b0316146107cf576107cf8282611e6a565b610c45828260405180602001604052806000815250611eae565b610c458282604051602401611b9792919061252b565b60408051601f198184030181529190526020810180516001600160e01b03166309710a9d60e41b179052611cd3565b60006001600160a01b0384163b15611cc857604051630a85bd0160e11b81526001600160a01b0385169063150b7a0290611c0a903390899088908890600401612477565b602060405180830381600087803b158015611c2457600080fd5b505af1925050508015611c54575060408051601f3d908101601f19168201909252611c51918101906122e0565b60015b611cae573d808015611c82576040519150601f19603f3d011682016040523d82523d6000602084013e611c87565b606091505b508051611ca65760405162461bcd60e51b81526004016106999061254d565b805181602001fd5b6001600160e01b031916630a85bd0160e11b149050611524565b506001949350505050565b80516a636f6e736f6c652e6c6f67602083016000808483855afa5050505050565b60006001611d0184610cc0565b611d0b9190612651565b600083815260076020526040902054909150808214611d5e576001600160a01b03841660009081526006602090815260408083208584528252808320548484528184208190558352600790915290208190555b5060009182526007602090815260408084208490556001600160a01b039094168352600681528383209183525290812055565b600854600090611da390600190612651565b60008381526009602052604081205460088054939450909284908110611dd957634e487b7160e01b600052603260045260246000fd5b906000526020600020015490508060088381548110611e0857634e487b7160e01b600052603260045260246000fd5b6000918252602080832090910192909255828152600990915260408082208490558582528120556008805480611e4e57634e487b7160e01b600052603160045260246000fd5b6001900381819060005260206000200160009055905550505050565b6000611e7583610cc0565b6001600160a01b039093166000908152600660209081526040808320868452825280832085905593825260079052919091209190915550565b611eb88383611ee1565b611ec56000848484611bc6565b6107cf5760405162461bcd60e51b81526004016106999061254d565b6001600160a01b038216611f375760405162461bcd60e51b815260206004820181905260248201527f4552433732313a206d696e7420746f20746865207a65726f20616464726573736044820152606401610699565b6000818152600260205260409020546001600160a01b031615611f9c5760405162461bcd60e51b815260206004820152601c60248201527f4552433732313a20746f6b656e20616c7265616479206d696e746564000000006044820152606401610699565b611fa860008383611aaf565b6001600160a01b0382166000908152600360205260408120805460019290611fd1908490612625565b909155505060008181526002602052604080822080546001600160a01b0319166001600160a01b03861690811790915590518392907fddf252ad1be2c89b69c2b068fc378daa952ba7f163c4a11628f55a4df523b3ef908290a45050565b82805461203b90612694565b90600052602060002090601f01602090048101928261205d57600085556120a3565b82601f1061207657805160ff19168380011785556120a3565b828001600101855582156120a3579182015b828111156120a3578251825591602001919060010190612088565b506120af9291506120b3565b5090565b5b808211156120af57600081556001016120b4565b600067ffffffffffffffff808411156120e3576120e361272a565b604051601f8501601f19908116603f0116810190828211818310171561210b5761210b61272a565b8160405280935085815286868601111561212457600080fd5b858560208301376000602087830101525050509392505050565b80356001600160a01b038116811461215557600080fd5b919050565b60006020828403121561216b578081fd5b6121748261213e565b9392505050565b6000806040838503121561218d578081fd5b6121968361213e565b91506121a46020840161213e565b90509250929050565b6000806000606084860312156121c1578081fd5b6121ca8461213e565b92506121d86020850161213e565b9150604084013590509250925092565b600080600080608085870312156121fd578081fd5b6122068561213e565b93506122146020860161213e565b925060408501359150606085013567ffffffffffffffff811115612236578182fd5b8501601f81018713612246578182fd5b612255878235602084016120c8565b91505092959194509250565b60008060408385031215612273578182fd5b61227c8361213e565b915060208301358015158114612290578182fd5b809150509250929050565b600080604083850312156122ad578182fd5b6122b68361213e565b946020939093013593505050565b6000602082840312156122d5578081fd5b813561217481612740565b6000602082840312156122f1578081fd5b815161217481612740565b60006020828403121561230d578081fd5b813567ffffffffffffffff811115612323578182fd5b8201601f81018413612333578182fd5b611524848235602084016120c8565b600060208284031215612353578081fd5b5035919050565b60008151808452612372816020860160208601612668565b601f01601f19169290920160200192915050565b60008351612398818460208801612668565b8351908301906123ac818360208801612668565b01949350505050565b6000845160206123c88285838a01612668565b8551918401916123db8184848a01612668565b85549201918390600181811c90808316806123f757607f831692505b85831081141561241557634e487b7160e01b88526022600452602488fd5b808015612429576001811461243a57612466565b60ff19851688528388019550612466565b60008b815260209020895b8581101561245e5781548a820152908401908801612445565b505083880195505b50939b9a5050505050505050505050565b6001600160a01b03858116825284166020820152604081018390526080606082018190526000906124aa9083018461235a565b9695505050505050565b602080825282518282018190526000919060409081850190868401855b8281101561250b57815180518552868101516001600160a01b031687860152850151151585850152606090930192908501906001016124d1565b5091979650505050505050565b602081526000612174602083018461235a565b60408152600061253e604083018561235a565b90508260208301529392505050565b60208082526032908201527f4552433732313a207472616e7366657220746f206e6f6e20455243373231526560408201527131b2b4bb32b91034b6b83632b6b2b73a32b960711b606082015260800190565b6020808252818101527f4f776e61626c653a2063616c6c6572206973206e6f7420746865206f776e6572604082015260600190565b60208082526031908201527f4552433732313a207472616e736665722063616c6c6572206973206e6f74206f6040820152701ddb995c881b9bdc88185c1c1c9bdd9959607a1b606082015260800190565b60008219821115612638576126386126fe565b500190565b60008261264c5761264c612714565b500490565b600082821015612663576126636126fe565b500390565b60005b8381101561268357818101518382015260200161266b565b83811115610e8b5750506000910152565b600181811c908216806126a857607f821691505b602082108114156126c957634e487b7160e01b600052602260045260246000fd5b50919050565b60006000198214156126e3576126e36126fe565b5060010190565b6000826126f9576126f9612714565b500690565b634e487b7160e01b600052601160045260246000fd5b634e487b7160e01b600052601260045260246000fd5b634e487b7160e01b600052604160045260246000fd5b6001600160e01b031981168114610e4b57600080fdfea2646970667358221220b87968d842b3a7ac452099bc3b8d6fad2628f4c6ba1dd26f795efbd626662b1b64736f6c63430008040033",
  "linkReferences": {},
  "deployedLinkReferences": {}
}